:100000000C94BA640D9469210D943E210D94132132
:100010000D94E8200D94BD200D9492200D9467203E
:100020000D943C200D94BF210D94BF210D94BF2150
:100030000C94EB640C94EB640C94EB640C94EB6404
:100040000C94EB640C94EB640C94EB640C94EB64F4
:100050000C94EB640C94EB640C94EB640D94F21F21
:100060000C94EB640D94D4100D94AA100C94EB64D2
:100070000C94EB640C94EB640C94EB640C94EB64C4
:100080000C94EB640C94EB640C94EB640D9494214D
:100090000C94EB640C94EB640C94EB640C9452AFF2
:1000A0000C94EB640C94EB640C94EB640C94EB6494
:1000B0000C94EB640D9402230C94EB640C94EB64AD
:1000C0000C94EB640C94EB640C94EB640C94EB6474
:1000D0000C94EB640C94EB640C94EB640C94EB6464
:1000E0000C94EB640D941A090C9417910C94C59719
:1000F0000D94DA0C0C9479F10C9439F30D941B1BCC
:100100000C94F8940C9484C60D94C20C0C94CAF10F
:100110000C9492890C9456F10C94447F0C945CD608
:100120000C94A0C40C941F910D94970B0D94991EE0
:100130000C943F7F0D94850D0D94084C0D94C80CC4
:100140000D94F80C0C94DE890C944FF10C94ECDBBC
:100150000D94E80C0C94BF890C941CF30C9471DB87
:100160000C940AD60C94AB950C94627F0C946BF1B2
:100170000C94587F0D94931E0C9413F20C9438F247
:100180000C94FDDE0C94F2940C94CCC60C948AF280
:100190000C94497F0C94AE950C94E4DE0C940FDD26
:1001A0000D94CC0C0D94AB0B0D941A120C94B1A7BA
:1001B0000D94110D0C94FAE40C942EE50C94BD9161
:1001C0000D9408120C942BDA0D94E40C0D94F60C9B
:1001D0000D94131D0C94A8F10D945B120C94C7DDC3
:1001E0000C94DADE0D94E2110C9464D50C94C1DD0C
:1001F0000C94F5940C94D3A70C94C1910C94ECC678
:100200000C9465970C94ACF20C940AE50C94B5F23E
:100210000D940D1D0C9423F10C949FF20D94F20C8F
:100220000D9401150D94D5110C94D4970C94F3DE14
:100230000C945D910C9464C60D94B70C0C9424C678
:100240000D9443170C94C0A70D94BB0C0C94AFA74E
:100250000C94B4DA0C94D4DE0C9472F10D94A11EBB
:100260000C94DAA70D941D090C9473F20D94F11BF4
:100270000D94EC110D94101D0D9451120D94471214
:100280000C9426F30D94F5080C941CE50C9407A827
:100290000D94191D0C9425E50D94ED0C0D94100D85
:1002A0000D9410120D9425160C94BBDD0C945DF189
:1002B0000D9420140D94961E0D94D60C0C9458A8F1
:1002C0000D94880B0C9443DD0C94EEC50C94E7DC84
:1002D0000D9411090C94EF940C94E9890C94BF953A
:1002E0000C94B4950C946BF20C944E7F0C9410E526
:1002F0000D94901E0C94BDD90C94CDDD0C945197A7
:100300000D94AD0C0C94FBF10C941EC50D94D20C05
:100310000D945B0B0C94BAD50D946F120C94CC9188
:100320000C9440F30C94A8950C942FB10C94537F2B
:100330000D946C1F0D94E00C0D9417090C9437A9C3
:100340000D9424120C942BF20C944AA80D941F1DAA
:100350000C945D7F0C9444C60C94B5DD0C942A91EA
:100360000D943D120D949C1E0C94FE940C94FEC4AE
:100370000C940EC60C943A7F0D94B30C0C94B79564
:100380000C9492F20C94E2D50C9488C60C94F0D4A0
:100390000C94CBB40C94BB910D9414090C94D4F12F
:1003A0000D943E0C0C948EC50C94CEC50C94BA954D
:1003B0000C9462F20D94161D0C94ACC60D9465124B
:1003C0000C94F8DE0D94DD110C94E9DE0C942CF302
:1003D0000C9449970C9432F30C94B7AA0C9436A859
:1003E0000C9457A80C94C2F20C9492D50C94D6AAF3
:1003F0000C9466890D942E120D9470160C94FB9437
:100400000D94D13B0C942F7F0D9420090D94F6117F
:100410000C94B1950C94B0A70D94BF0C0C9431A919
:100420000D946D0D0C94DFDE0D94AB150C9464F1FE
:100430000C9447F30D9400120C9425D80C9416E5F7
:100440000D94B90B0C94EEDE0C948CC60D94F70C45
:100450000C942BFD0D94F10B0D941C1D0C94AEC54A
:100460000C94F1F10C9449DD0D94EE0C0C9404E520
:100470000C946C950D94A41E0C94FFE45B272563EB
:10048000272C272573272C272573272C272573270F
:100490005D007C2023232320526574726965766990
:1004A0006E67206E6F6E20766F6C6174696C65206C
:1004B000696E666F2066726F6D20454550524F4DD4
:1004C000006E766D3A204661696C6564206C6173DC
:1004D00074436865636B526573756C74496E6465CB
:1004E00078006E766D3A204661696C6564206E75A1
:1004F0006D436865636B526573756C7473006E76DB
:100500006D3A204661696C65642072656164696E4C
:10051000675061757365006E766D3A204661696C4F
:100520006564206D61696E53657474696E677300EC
:100530003D3D3D3D3D3D3D3D3D3D20454550524FBE
:100540004D20636F6E74656E74732061667465729E
:10055000205245534554007C202D2D2D204E766988
:100560006E666F2056657273696F6E203D20007C49
:10057000202D2D2D20426F617264205665727369A3
:100580006F6E203D20007C202D2D2D205357204DB7
:10059000696E6F722056657273696F6E203D200020
:1005A0007C202D2D2D205357204D616A6F722056CF
:1005B000657273696F6E203D20003D3D3D3D3D3DC0
:1005C0003D3D3D3D20454550524F4D20484541441D
:1005D00020636F6E74656E7473206166746572203B
:1005E0005245534554007C202323232052657472C6
:1005F000696576656420436F6E74656E7473206FF1
:100600006620454550524F4D007C2023232320492E
:100610006E697469616C697A696E672045455052EC
:100620004F4D2064617461007C2023232320466F9A
:10063000756E642076616C69642042564D20616E4F
:1006400064204D616368696E65206379636C652021
:1006500064617461007C2023232320496E76616CE1
:1006600069642070726576696F75736C7920736147
:1006700076656420454550524F4D20646174610099
:100680007C202323232050454550205665726966FF
:100690006965643D004163636570742025642E259F
:1006A00064202859455329203F0043757272656EB6
:1006B0007420504545503D25642E256400546172D8
:1006C00067657420504545503D256420636D483270
:1006D0004F000044657369726564205045455000C1
:1006E000746F20616368696576650041646A75733B
:1006F0007420504545502076616C7665007C20233F
:10070000232320566572696679696E6720504545D6
:10071000503D00256420636D48324F000000504575
:1007200045502076616C7665207365742061740095
:10073000000000446973636F6E6E656374656400E6
:1007400057692D4669000000446973636F6E6E65DA
:10075000637465640057692D466920616C72656138
:10076000647900436F6E74696E756520285945532E
:1007700029203F0061667465722074686973206186
:100780006374696F6E005468656E205265636F6EA6
:100790006E6563742057692D4669004669727374EB
:1007A00020446973636F6E6E656374007C2023233D
:1007B0002320436F6D6D69744368616E6765206FB8
:1007C0006E205354414E44425920656E7472790034
:1007D00028594553206F72204E4F29203F00004575
:1007E0006E746572205354414E444259204D656EDB
:1007F000753F00002A2A2A204552524F5220434F6B
:100800004445203D20004E6F7420506F7373696221
:100810006C65004D61696E74656E616E6365204242
:10082000726561746873003E3E3E3E204E6F7420D8
:10083000706F737369626C6520746F2068616E6499
:100840006C65206572726F72003E3E3E3E205377AB
:1008500069746368696E6720746F20506D617820D9
:1008600046616C6C6261636B003E3E3E3E20537796
:1008700069746368696E6720746F20505356204610
:10088000616C6C6261636B003E3E3E3E2048616E6F
:10089000646C696E67204D6F746F7220526573656A
:1008A00074003E3E3E3E204572726F722048616E7B
:1008B000646C65723A20436F6E74696E75696E6719
:1008C000204173206973007C202A2A2A2048616E07
:1008D000646C696E6720457272726F722320002506
:1008E000642E256420286C2F6D696E2900436F6E7D
:1008F0006669726D20444F4E452028594553292082
:100900003F000053657420617400436865636B2089
:100910004F787967656E20464C6F770050533D25C0
:1009200064205450533D25730052523D25642049A4
:10093000453D313A2564004D6F64653D5053562066
:100940004D563D25642E2564004D6F64653D534929
:100950004D562056543D2564004D6F64653D41431E
:10096000562056543D2564004D6F64653D434D56F9
:100970002056543D2564004D454E55202D3E2053B4
:1009800074616E646279204D656E750050415553F7
:1009900045202D3E205B5354414E4442595D004258
:1009A00072656174682044656C697665727900537C
:1009B00074617274696E6720427265617468730055
:1009C0003E3E3E3E204368616E67657320636F6DF7
:1009D0006D6974746564003E3E3E3E2045787472D5
:1009E000656D6520504D415820646574656374657C
:1009F00064003E3E3E3E2045787472656D65205031
:100A00004D4158206163636570746564003E3E3EED
:100A10003E2045787472656D6520504545502064D0
:100A200065746563746564003E3E3E3E204578749F
:100A300072656D6520504545502061636365707433
:100A40006564003E3E3E3E204C6F7720505320634D
:100A50006F6D626F206465746563746564003E3E0B
:100A60003E3E2045787472656D6520505320636F5B
:100A70006D626F206465746563746564003E3E3E1C
:100A80003E204C6F7720505320636F6D626F206162
:100A900063636570746564003E3E3E3E2045787435
:100AA00072656D6520505320636F6D626F206163C6
:100AB000636570746564003E3E3E3E204578747206
:100AC000656D6520564320636F6D626F20646574A9
:100AD0006563746564003E3E3E3E204578747265F1
:100AE0006D6520564320636F6D626F20616363659F
:100AF00070746564007C2023232320436F6D6D692F
:100B0000744368616E6765206F6E205354414E4494
:100B1000425920656E747279003E3E3E3E20457813
:100B20007472656D6520504D41582064657465632D
:100B3000746564206F6E205354414E4442592065C1
:100B40006E747279003E3E3E3E2045787472656D4B
:100B50006520504545502064657465637465642064
:100B60006F6E205354414E44425920656E74727921
:100B7000003E3E3E3E204C6F7720505320636F6D09
:100B8000626F206465746563746564206F6E2053C2
:100B900054414E44425920656E747279003E3E3E87
:100BA0003E2045787472656D6520505320636F6DEB
:100BB000626F206465746563746564206F6E205392
:100BC00054414E44425920656E747279003E3E3E57
:100BD0003E2045787472656D6520564320636F6DC5
:100BE000626F206465746563746564206F6E205362
:100BF00054414E44425920656E747279007C203E07
:100C00003E3E205570646174696E672045455052C0
:100C10004F4D206F6E205354414E44425920656E13
:100C20007472790025646674206F722025646D00EB
:100C3000436F72726563742028594553206F722088
:100C40004E4F293F0000004C6F636174696F6E2046
:100C50002620416C746974756465003E3E204661CF
:100C6000696C65642053796E63696E672052582001
:100C7000545820627566666572007C202323232009
:100C80005265636569766564204D65737361676558
:100C900020007C20232323205265636569766564E8
:100CA000204D65737361676520007C20232323201A
:100CB0005265636569766564204D65737361676528
:100CC00020007C20232323205265636569766564B8
:100CD000204D65737361676520007C2023232320EA
:100CE0005265636569766564204D657373616765F8
:100CF00020007C2023232320526563656976656488
:100D0000204D65737361676520007C2023232320B9
:100D10005265636569766564204D657373616765C7
:100D200020007C203E3E3E204C6F636174696F6EF4
:100D300020506F7274616C2074696D656F757400FA
:100D40002E2E202564202E2E0052657472792028C4
:100D500059455329203F00506F7274616C205469CB
:100D60006D656F7574004C6F636174696F6E2049B7
:100D70006E666F004661696C656420746F20656EF5
:100D800074657200436F6E74696E756520285945ED
:100D90005329203F00004C6F636174696F6E2049D6
:100DA0006E666F726D6174696F6E00456E74657208
:100DB000204D616E6461746F7279002573797220C1
:100DC00025736B67202573636D00257320257300E1
:100DD00050617469656E743A2046656D616C65009A
:100DE000436F72726563742028594553206F7220D7
:100DF0004E4F293F00000050617469656E743A20BF
:100E00004D616C6500094578747261637465642096
:100E10006865696768743D000952656D61696E694E
:100E20006E67207374723D00094578747261637453
:100E30006564207765696768743D000952656D6176
:100E4000696E696E67207374723D0009457874722B
:100E50006163746564206167653D000952656D6179
:100E6000696E696E67207374723D0009457874720B
:100E700061637465642067656E6465723D00095244
:100E8000656D61696E696E67207374723D007C20C8
:100E9000232323205265636569766564207061743D
:100EA00069656E7420737461747320007C20232341
:100EB00023205265636569766564204D65737361AF
:100EC000676520007C2023232320526563656976B3
:100ED0006564204D65737361676520007C20232362
:100EE00023205265636569766564204D657373617F
:100EF000676520007C202323232052656365697683
:100F00006564204D65737361676520007C20232331
:100F100023205265636569766564204D657373614E
:100F2000676520007C202323232052656365697652
:100F30006564204D65737361676520007C20232301
:100F400023205265636569766564204D657373611E
:100F5000676520007C203E3E3E2050617469656ECE
:100F60007420506F7274616C2074696D656F757454
:100F7000002E2E202564202E2E00526574727920BA
:100F800028594553206F72204E4F29203F00506F43
:100F90007274616C2054696D656F75740050617472
:100FA00069656E7420496E666F004661696C6564A0
:100FB00020746F20656E7465720028594553206F48
:100FC00072204E4F29203F000050617469656E7495
:100FD00020496E666F726D6174696F6E00456E7444
:100FE0006572206E657700585858585858585858A8
:100FF0005858204361757365206F6620526573658C
:1010000074203D20506F7765722D6F6E205265738E
:1010100065740058585858585858585858582043CC
:1010200061757365206F66205265736574203D207D
:101030005761746368646F67205265736574005804
:10104000585858585858585858582043617573651F
:10105000206F66205265736574203D204D616E756A
:10106000616C205265736574007C5F5F5F5F5F5FDA
:101070005F5F5F5F5F5F5F5F5F5F5F5F7C007C20E4
:101080002020202054656B4D6564696B6120202011
:10109000207C007C20202020494E53504952452D71
:1010A0003130302020207C00205F5F5F5F5F5F5F1A
:1010B0005F5F5F5F5F5F5F5F5F5F5F200000506F3C
:1010C0007765722D4F6E003C3C205245535441527F
:1010D0005420524541534F4E203E3E0000004D618A
:1010E0006E75616C205245534554003C3C2052457E
:1010F000535441525420524541534F4E203E3E00DE
:10110000005265616479202859455329203F0046E3
:101110006F6C6C6F7720496E737472756374696F4E
:101120006E730000494E53504952452D3130300006
:1011300056657273696F6E2025642E25642E2564B2
:1011400000524553455420746F2072657374617268
:10115000740000524553544F524544004661637435
:101160006F72792053657474696E677300285945EE
:1011700053206F72204E4F293F004379636C657393
:101180002064617461203F0042564D20616E6420EE
:101190004D616368696E650050726573657276654E
:1011A00000000041424F5254454400466163746F51
:1011B000727920524553455400436F6E74696E75C1
:1011C000652028594553206F72204E4F293F00005B
:1011D000466163746F72792053657474696E6773C6
:1011E00000524553455420746F0043616C6C205489
:1011F0006563686E696369616E0000004C6F7720FB
:10120000426F61726420566F6C746167650025756A
:101210002E257520566F6C7473007C2023232320A9
:10122000537570706C7920566F6C746167652069B6
:101230006E206D696C6C69766F6C7473203D200054
:101240000000537570706C7920566F6C746167651F
:1012500000436865636B696E6720426F617264204A
:10126000004D696E2072657175697265642025751F
:101270002E2575205600000046697865642061744B
:10128000005A65726F20466C6F7720566F75740038
:101290007C2040404020464958454420466C6F77AA
:1012A0002053656E736F72205A65726F466C6F774C
:1012B0004D762061742000207A65726F466C6F77DE
:1012C0004D763D00204D494E3D00204D41583D009A
:1012D0007C2040404020466C6F772053656E736FD2
:1012E00072202353616D706C65733D005A65726F97
:1012F000466C6F774D763D2564206D56004D494E06
:101300003D25642C204D41583D2564002564205323
:10131000616D706C6573000000005A65726F466CF9
:101320006F772043616C6962726174696F6E007CD3
:1013300020232323205245545259202D205A6572D0
:101340006F20466C6F772064656C74615058313043
:10135000203D20007C202323232052455452592035
:101360002D205175697363656E7420446F776E50DC
:101370002028313058206D6D2048324F29203D20E3
:10138000007C20232323205245545259202D2051E4
:1013900075697363656E742055705020283130581C
:1013A000206D6D2048324F29203D200000415454CB
:1013B000454D505420230046696E652054756E6972
:1013C0006E67005A45524F20466C6F7700004932D5
:1013D0004320616464726573732030783237004C47
:1013E0004344206E6F7420666F756E6420617400D4
:1013F000007C2053656C6674657374204661696C6B
:101400006564202D206E6F204C4344206174206160
:1014100064647265737320307832370000537563EB
:101420006365737366756C6C790053656C662054E4
:101430006573742052756E00007C2053656C665491
:10144000657374205375636365737366756C007C94
:101450002053656C6654657374204661696C6564DD
:10146000004E6F746564202859455329203F00437E
:10147000616C6C20546563686E696369616E00001D
:1014800053797374656D2053657276696365205472
:10149000696D6500256C75204379636C6573000088
:1014A0000053797374656D2068617320636F6D708C
:1014B0006C657465640053797374656D204379635A
:1014C0006C6520436F756E7400256C7520437963DD
:1014D0006C657300446F6E65202859455329203F81
:1014E00000446973636F6E6E656374205061746944
:1014F000656E740053656C66205465737400537494
:10150000617274696E6720506F7765722D6F6E001F
:101510007C2023232320466163746F727920524517
:101520005345542072657175657374656400436F2B
:101530006E74696E7565202859455329203F0073E4
:101540007465702D62792D737465700053797374AE
:10155000656D2077696C6C206775696465003C3C3B
:1015600020464952535420504F5745522D55502034
:101570003E3E0052657472792028594553206F729F
:10158000204E4F29203F0000434845434B20464111
:10159000494C4544000028594553206F72204E4F56
:1015A00029203F00436F6E74696E75652052656D2A
:1015B00061696E696E673F00434845434B20464171
:1015C000494C45440000524553455420616E642007
:1015D000506F7765722D446F776E000043616C6CBD
:1015E00020546563686E696369616E004641494CC9
:1015F000454420506F77657255702054657374733D
:1016000000436F6E74696E75652028594553292013
:101610003F000050415353454420506F7765725549
:1016200070205465737473005355434345535321DD
:10163000007C2023232320466F756E64205379732A
:1016400074656D205549443A007C202323232050A3
:1016500072652D6578697374696E67205379737448
:10166000656D205549443A0028594553206F722032
:101670004E4F29203F000044617368626F617264BD
:10168000207669612057692D466900456E61626C5C
:10169000652052656D6F74652057454200446F6E3A
:1016A00065202859455329203F00746F20427265F8
:1016B000617468696E672043697263756974004379
:1016C0006F6E6E6563742050617469656E7400435B
:1016D0006865636B73205375636365737366756CBC
:1016E000007C2023232320466972737420506F7777
:1016F0006572757020646F6E65202D20736176654C
:101700006420746F20454550524F4D00207374651E
:101710007073203D20006D730029207053616D703F
:101720006C696E673D00296D73202072706D5831B1
:10173000302028007C20232323204465636F6D70B4
:1017400072657373696E672040280054322E35002D
:1017500054322E300054312E350054312E30004694
:1017600036302500463530250046343025004633D6
:1017700030250046323025004631302500494E568E
:10178000414C49440000000000000000000000003F
:101790000000000000416C61726D20436F646500C1
:1017A0000000000000000000000000000045786319
:1017B0006565646564204D4158494D554D000000F4
:1017C0000000000000496E737069726174696F6E89
:1017D000205072657373757265000000004C65617E
:1017E0006B61676520696E0000000000000000006A
:1017F0000000000000427265617468696E672043F2
:101800006972637569740000000000000044697328
:10181000636F6E6E656374696F6E20696E000000A1
:101820000000000000427265617468696E672043C1
:1018300069726375697400000000000000507265F1
:1018400073737572652053656E736F722873290008
:1018500000000000006E6F7420776F726B696E6716
:10186000000000000000000000000000004D656165
:101870007375726564205045455020646F65730030
:1018800000000000006E6F74206D61746368207347
:1018900065742076616C756500000000005072650B
:1018A0007373757265207369676E616C0000000068
:1018B00000000000006465746563746564206173F2
:1018C0002061626E6F726D616C00000000504152C9
:1018D000414D4554455220436F6E666C69637400F8
:1018E00000000000005053206C6573732074686121
:1018F0006E2050454550000000000000005041524D
:10190000414D4554455220436F6E666C69637400C7
:101910000000000000504D4158206C657373207426
:1019200068616E2050454550000000000050415253
:10193000414D4554455220436F6E666C6963740097
:101940000000000000504D4158206C6573732074F6
:1019500068616E20505300000000000000504152AA
:10196000414D4554455220436F6E666C6963740067
:101970000000000000545053206D6F7265207468A1
:10198000616E202852522F322900000000556E61EE
:10199000626C6520746F20616368696576652050AC
:1019A0005300000000696E2072657175697265648C
:1019B00020545053000000000000000000457874DF
:1019C00072656D65205643000000000000000000B5
:1019D000000000000053657474696E6773000000B6
:1019E00000000000000000000000000000457874C6
:1019F00072656D652050530000000000000000007B
:101A0000000000000053657474696E677300000085
:101A10000000000000000000000000000050532003
:101A2000427265617468204661696C757265000078
:101A30000000000000546F6F206D616E79205374B8
:101A400065707300000000000000000000436F6E2E
:101A500073697374656E6379204572726F720000EA
:101A6000000000000043616C6C20546563686E697F
:101A70006369616E0000000000000000004D6F749B
:101A80006F72206E6F74206174000000000000000F
:101A900000000000007374617274696E6720706FDB
:101AA000736974696F6E0000000000000044657384
:101AB000697265642056542C52522C452F490000FF
:101AC0000000000000436F6D626F206E6F74206134
:101AD000636869657661626C65000000005072653C
:101AE00073737572652053656E736F72000000002A
:101AF000000000000043616C6962726174696F6E7E
:101B0000204572726F720000000000000053656C87
:101B10006674657374204661696C6564000000003A
:101B2000000000000043616C6C20546563686E69BE
:101B30006369616E000000000000000000507265E3
:101B400055736520436865636B73204661696C65F6
:101B5000640000000043616C6C20546563686E692A
:101B60006369616E000000000000000000506C61BD
:101B700074657320746F2042564D204761700000D9
:101B8000000000000052455345542D43616C6C2009
:101B9000537570706F72740000000000004D6F7418
:101BA0006F72204661756C74000000000000000038
:101BB0000000000000547279696E67205265636FFF
:101BC00076657279202E2E2E000000000053797366
:101BD00074656D204F76657268656174696E670023
:101BE00000000000005265737461727420537973B1
:101BF00074656D0000000000000000000053797360
:101C000074656D20746F6F20436F6C64000000007A
:101C10000000000000526573746172742053797380
:101C200074656D00000000000000000000506C6151
:101C300074657320486F6D696E67204661696C65D5
:101C40006400000000436865636B20507265737325
:101C500075726520747562657300000000506C61D8
:101C600074657320486F6D696E67204661696C65A5
:101C700064000000004D61736B204E4F54204F50A4
:101C8000454E0000000000000000000000504152DE
:101C9000414D4554455220436F6D626F0000000076
:101CA0000000000000696E76616C6964000000004D
:101CB000000000000000000000000000004D6F74F4
:101CC0006F72204D616C66756E6374696F6E000093
:101CD0000000000000524553455420537973746549
:101CE0006D000000000000000000000000556E6163
:101CF000626C6520746F2064656C697665720000A3
:101D0000000000000073657420546964616C205603
:101D10006F6C756D6500000000000000005265707A
:101D20006C6163652042564D2042616700000000EF
:101D30000000000000457863656564656420616C9F
:101D40006C6F7765642075736500000000556E61E7
:101D5000626C6520746F206C6F6720696E000000F4
:101D60000000000000746F207468652057494649E0
:101D7000206E6574776F726B000000000057692D4C
:101D8000466920506F7274616C0000000000000012
:101D9000000000000074696D6564206F75740000B8
:101DA000000000000000000000000000005053563A
:101DB000204D696E75746520566F6C756D650000F9
:101DC000000000000062656C6F7720285252207876
:101DD00020565429000000000000000000556E61EC
:101DE000626C6520746F2064656C697665720000B2
:101DF0000000000000736574205072657373757283
:101E00006520537570706F72740000000046616940
:101E10006C656420746F2053796E630000000000CD
:101E2000000000000052582F545820627566666505
:101E30007273000000000000000000000046694FBF
:101E4000322053657474696E670000000000000062
:101E5000000000000052656A65637465640000005C
:101E60000000000000000000000000000054656D4C
:101E700070657261747572652053656E736F720060
:101E800000000000004E6F7420466F756E64000005
:101E90000000000000000000000000000045787411
:101EA00072656D6520504D41580000000000000033
:101EB000000000000053657474696E6773000000D1
:101EC00000000000000000000000000000457874E1
:101ED00072656D652050454550000000000000000F
:101EE000000000000053657474696E6773000000A1
:101EF0000000000000000000000000000050454508
:101F00005020746F6F206C6F77000000000000009D
:101F1000000000000053657474696E677300000070
:101F20000000000000000000000000000041697295
:101F300077617920426C6F636B656400000000007C
:101F40000000000000436865636B205061746965A0
:101F50006E7400000000000000000000002E2E2023
:101F60002564202E2E0000496E666F726D617469C3
:101F70006F6E004E6F6E2D766F6C6174696C6500CC
:101F8000436C656172696E670009416C74496E4DFE
:101F90003A0009416C74496E46743A00094E616D0D
:101FA000653A00094865696768743A0009576569C8
:101FB0006768743A00094167653A000947656E64CD
:101FC00065723A00094C617374204E616D653A0088
:101FD000094669727374204E616D653A007C202D4C
:101FE0002D2D204E756D626572206F6620436865E9
:101FF000636B657220526573756C7473203D2000AD
:102000007C202D2D2D20506172616D6574657220CC
:1020100053657474696E6773007C202D2D2D2050DC
:10202000617469656E7420496E666F007C202D2D89
:102030002D20466C6F77205761726E696E67204461
:1020400065637265617365203D20007C202D2D2D18
:1020500020466C6F77205761726E696E6720496EFB
:10206000637265617365203D20007C202D2D2D203D
:10207000496E737069726174696F6E205061757317
:102080006520287365637358313029203D20007C1A
:10209000202D2D2D2053706F6E74616E656F7573DA
:1020A000205472696767657220286D6D2048324F31
:1020B00029203D20007C202D2D2D2053494D5620D8
:1020C00053796E6357696E646F7750657263656E9E
:1020D0007420282529203D20007C202D2D2D2042F4
:1020E000757A7A657220566F6C756D6520576172CE
:1020F0006E696E67203D20007C202D2D2D204275BD
:102100007A7A657220566F6C756D6520496E666FC0
:10211000203D20007C202D2D2D20446973706C61A2
:1021200079204272696768746E657373203D200080
:102130007C202D2D2D204672657175656E6379208A
:1021400061742077686963682042726561746820F1
:102150005761766573206172652073656E74203DEA
:1021600020007C202D2D2D204D617820436F6D7037
:1021700072657373696F6E205374657073203D20B0
:10218000007C202D2D2D204C6F636174696F6E00D3
:102190007C202D2D2D2052656164696E6720506171
:1021A000757365203D20007C202D2D2D204C617302
:1021B0007420757365642053534944203D20007C8E
:1021C000202D2D2D2053797374656D2055494420A1
:1021D0003D20007C202D2D2D2056616C69642053FC
:1021E000534944203D20007C202D2D2D2057617621
:1021F0006553656E64506572696F64536574203D04
:1022000020007C202D2D2D205761766553656E644E
:10221000496E697469616C697A6564203D20007C4F
:10222000202D2D2D20526574726965766564537575
:10223000636365737366756C6C79203D20007C2048
:102240002D2D2D20496E74616C6C696E674E65771B
:1022500042766D203D20007C202D2D2D204C6F637B
:102260006174696F6E496E697469616C697A6564DD
:10227000203D20007C202D2D2D20527463496E6955
:102280007469616C697A6564203D20007C202D2D85
:102290002D204669727374506F7765725570446F64
:1022A0006E65203D20007C202D2D2D204E756D6209
:1022B0006572206F662042564D204379636C6573CA
:1022C000203D20007C202D2D2D204E756D626572E5
:1022D000206F66204D616368696E65204379636C89
:1022E0006573203D20007C202D2D2D2053656372C9
:1022F000657420436F6465203D20007C202D2D2DCA
:1023000020426F6172642056657273696F6E203D62
:1023100020007C202D2D2D205357204D696E6F728B
:102320002056657273696F6E203D20007C202D2D34
:102330002D205357204D616A6F7220566572736964
:102340006F6E203D2000436F6E74696E75652028A6
:1023500059455329203F004152524F5773206F7205
:10236000204B4E4F42004E61766967617465204D87
:10237000454E55207573696E67005072652D557313
:102380006520436865636B696E67007C2046414940
:102390004C2020436865636B203C007C20444F4EFA
:1023A000452020436865636B203C007C20534B49EB
:1023B000502020436865636B203C0028594553201A
:1023C0006F72204E4F29203F004F4B20746F2045E5
:1023D000584954004F7468657220436865636B7395
:1023E00020536B6970706564004D616E6461746F39
:1023F000727920436865636B73204F4B003C5265D4
:102400007475726E696E6720746F204D656E753ECF
:1024100000004E6F7420436F6D706C6574656400CE
:102420004D616E6461746F727920436865636B738C
:10243000007C2023232320456E7465726564205040
:1024400072652D55736520436865636B73004E6F2D
:10245000746564202859455329203F0000005379B2
:102460007374656D20554944206973007C205E5E5D
:102470005E205761726E696E672042757A7A657266
:1024800020566F6C756D65203D2000446F6E652091
:1024900028594553206F72204E4F29203F00666F08
:1024A00072205741524E494E4720616C61726D73E4
:1024B0000042757A7A657220566F6C756D650055AD
:1024C0007365204B4E4F4220746F206368616E67C6
:1024D00065007C205E5E5E20496E666F2042757AE4
:1024E0007A657220566F6C756D65203D2000446FD3
:1024F0006E652028594553206F72204E4F29203F8A
:1025000000666F7220494E464F20616C61726D7398
:102510000042757A7A657220566F6C756D6500554C
:102520007365204B4E4F4220746F206368616E6765
:10253000650043616C6962726174696F6E20464127
:10254000494C45440043616C6962726174696F6E05
:10255000204F4B004F66667365742025642E2564FA
:1025600020286D6D48324F2900204F6666736574D0
:102570002028313058206D6D2048324F29203D20D1
:10258000007C20232323200020736563735831309F
:10259000007C2023232320496E7370697261746963
:1025A0006F6E2050617573653D0025642E25642093
:1025B0007365637300436F6E74696E756520285987
:1025C000455329203F000000496E737069726174A1
:1025D000696F6E20506175736500446F6E652028C9
:1025E00059455329203F0000557365204152524FF1
:1025F0005773206F72204B4E4F4200536574204931
:102600006E73702E20506175736500416363657051
:10261000742028594553206F72204E4F29203F00C7
:102620000050657263656E74207365742061740078
:1026300053494D562053796E632057696E646F7706
:1026400000206D6D48324F007C20232323205370DF
:102650006F6E74616E656F7573205472696767651C
:10266000723D0025642E256400436F6E74696E759B
:1026700065202859455329203F0000547269676737
:102680006572207365742061740053706F6E74619D
:102690006E656F75732042726561746800446F6E79
:1026A00065202859455329203F0000557365204176
:1026B00052524F5773206F72204B4E4F420053655A
:1026C000742053706F6E742E205472696767657240
:1026D00000252900252920284465637265617365FA
:1026E0003D007C2023232320466C6F7720576172A6
:1026F0006E696E67205468726573686F6C647320CE
:1027000028496E6372656173653D007C2023232335
:1027100020466C6F77205761726E696E6720496E34
:1027200074657276616C3D00436F6E74696E756599
:10273000202859455329203F004F322044656372B9
:102740006561736520416C6572747300446F6E65DA
:10275000202859455329203F0000557365204152D8
:10276000524F5773206F72204B4E4F42004F322012
:10277000496E63726561736520416C6572747300A4
:102780004163636570742028594553206F72204E51
:102790004F29203F0000004F3220416C65727420A9
:1027A0005468726573686F6C647300446563726526
:1027B000617365202564252500496E637265617328
:1027C00065202564252500446F6E652028594553F2
:1027D000206F72204E4F29203F0000557365204125
:1027E00052524F5773206F72204B4E4F42004F3260
:1027F00020416C65727420496E74657276616C005C
:102800002564206D696E7300436F6E74696E756523
:10281000202859455329203F00006E6565647320C8
:102820007265706C6163696E6700436C6F636B20E7
:10283000426174746572790030313C2D202025731B
:10284000202825642920202D3E313200446F6E65FA
:10285000202859455329203F0000004D4F4E544831
:1028600000313C2D2D202025732825642920202D82
:102870002D3E3700446F6E65202859455329203F6F
:10288000000000444159206F66205745454B0043E6
:102890006F72726563742028594553206F72204E01
:1028A0004F293F00436F6E74696E75652028594546
:1028B0005329203F0000557365204B4E4F42206F37
:1028C000722055502F444F574E0053657420446179
:1028D000746520616E642054696D650041636365B1
:1028E00070742028594553206F72204E4F29203F85
:1028F000000000536574204461746520616E64209B
:1029000054696D65005B4D6F737420526563656E2D
:10291000745D005B4D6F737420526563656E742047
:102920002D2025645D005669657720285945532080
:102930006F72204E4F29203F0000436865636B652E
:102940007220526573756C74730055502F444F5745
:102950004E20746F2073656C65637400005265636C
:102960006F726473206E6F7420666F756E640050B2
:1029700072657620436865636B65722072756E00C0
:1029800000526573756C747320466F756E64203DDC
:102990002025640053656C656374202859455320D5
:1029A0006F72204E4F29203F0000004E756D62650A
:1029B00072206F662050726576696F757300436F81
:1029C0006E74696E75652028594553206F72204ECC
:1029D0004F29203F004E4F202F2043414E43454C6E
:1029E00020746F2065786974004152524F572F4B05
:1029F0004E4F4220746F207363726F6C6C0053747F
:102A0000617475732073637265656E7300436865E6
:102A1000636B65722072756E00446F6E6520285975
:102A2000455329203F00253032643C2D2D202025A0
:102A300030326420202D2D3E253032640025303484
:102A40006400436F6E74696E756520285945532084
:102A50006F72204E4F29203F006279205245534526
:102A6000540053657474696E677320666F6C6C6F85
:102A700077656400526573746F7265204661637494
:102A80006F7279005072657373205245534554003C
:102A900028594553206F72204E4F29203F00006176
:102AA000206E65772042564D3F0052656164792063
:102AB000746F20696E7374616C6C002859455320E3
:102AC0006F72204E4F29203F0000616C7265616477
:102AD0007920696E7374616C6C65643F0049732082
:102AE0007468652042564D206261670052657374B8
:102AF0006172742053797374656D00496E737461EB
:102B00006C6C2042564D00506F7765722D6F666673
:102B10002053797374656D00466F6C6C6F7720730A
:102B2000746570732062656C6F77004576657279A5
:102B300020256420427265617468287329000000B2
:102B400077696C6C2062652073656E7400427265F3
:102B50006174682057617665666F726D7300446FAB
:102B60006E65202859455329203F00005573652084
:102B70004152524F5773206F72204B4E4F420053B9
:102B8000656C65637420496E74657276616C004390
:102B90006F6E74696E7565202859455329203F0072
:102BA0005072657373204B4E4F42206F6E206465E8
:102BB0006D616E64006F66204272656174682057B3
:102BC000617665666F726D73004E6F205065726935
:102BD0006F64696320646973706C6179002859457A
:102BE00053206F72204E4F29203F006F66204272A3
:102BF000656174682057617665666F726D73005009
:102C00006572696F64696320646973706C617900CF
:102C100053656C65637420496E74657276616C20CF
:102C2000666F720028594553206F72204E4F29203D
:102C30003F006F6620427265617468205761766557
:102C4000666F726D7300506572696F6469632064AA
:102C50006973706C61790043616E63656C20496EC5
:102C600074657276616C20666F7200285945532036
:102C70006F72204E4F29203F0000616C72656164C5
:102C800079206B6E6F776E2057692D46690041750C
:102C9000746F2D636F6E6E65637420746F000049EE
:102CA0006E73706972652D3130302057692D466919
:102CB00000746F2057692D4669204E6574776F72D6
:102CC0006B00436F6E6E656374204C6170746F703F
:102CD0002F50686F6E6500506F737369626C65206A
:102CE00054696D656F7574000057692D46692049F8
:102CF0006E666F004661696C656420746F20726552
:102D000074726965766500094F54503D00090009E9
:102D1000003C3C3C3C2057692D666920436F6E6E39
:102D2000656374696F6E203E3E3E3E007C20232327
:102D300023205265636569766564204D6573736110
:102D4000676520007C202323232052656365697614
:102D50006564204D65737361676520007C202323C3
:102D600023205265636569766564204D65737361E0
:102D7000676520007C2023232320526563656976E4
:102D80006564204D65737361676520007C20232393
:102D900023205265636569766564204D65737361B0
:102DA000676520002E2E202564202E2E000000694D
:102DB0006E2070726F67726573730057692D466974
:102DC000204C6F67696E004F54502028594553209E
:102DD0006F72204E4F29203F00766961204F6E654B
:102DE0002D54696D652D5061737377640044617370
:102DF00068626F61726420636F6E6E656374696F81
:102E00006E004F5450206F7074696F6E20616C6C4F
:102E10006F7773004F54502069732025303464005D
:102E20004E6F746564202859455329203F000000E7
:102E3000556E6971756520537973494400436F6E0F
:102E400074696E7565202859455329203F0000009C
:102E5000696E2070726F67726573730057692D46D3
:102E600069204C6F67696E20526574727900285929
:102E70004553206F72204E4F29203F000052657449
:102E800072792070726576696F7573205353494467
:102E90000057692D4669204C6F67696E204661694D
:102EA0006C6564210028594553206F72204E4F29CC
:102EB000203F0043726564656E7469616C730052F3
:102EC000652D656E7465722057692D4669005769D6
:102ED0002D4669204C6F67696E204661696C656498
:102EE000210028594553206F72204E4F29203F0062
:102EF000526574727900506F7274616C2054696D00
:102F0000656F75740057692D4669204C6F67696E4F
:102F1000204661696C656421007C203E3E3E20575E
:102F2000692D466920506F7274616C2054696D651B
:102F30006F7574000000696E2070726F6772657340
:102F4000730057692D4669204C6F67696E007C20BD
:102F5000232323204F545020666F722044617368EE
:102F6000626F617264206C6F67696E203D2000544F
:102F7000727920616761696E206C6174657200000E
:102F80000057692D466920496E61636365737369F3
:102F9000626C6500252E323073000000436F6E6E48
:102FA000656374656420746F0057692D46692061FC
:102FB0006C72656164790041746D6F7370686572DD
:102FC0006963204F323D2564252500256466742001
:102FD0006F722025646D000000004C6F636174699E
:102FE0006F6E202620416C746974756465004272AE
:102FF000656174682023256C7500000000494E53FC
:10300000504952452D3130300028594553206F72B8
:10301000204E4F29203F00436F6E6669726D207409
:103020006F20616363657074006D61792062652053
:10303000746F6F2068696768005045455020706163
:1030400072616D657465720028594553206F722056
:103050004E4F29203F00436F6E6669726D20746F7A
:1030600020616363657074006D617920626520740E
:103070006F6F206869676800504D41582070617219
:10308000616D6574657200446F6E65202859455303
:10309000206F72204E4F29203F00746F2062652000
:1030A0006C6F636B6564006E6565647320506F7050
:1030B0002D4F66662076616C76650050726573737D
:1030C000757265203E20343020636D2048324F00F9
:1030D00025642E2564206C69747265732F6D696E8A
:1030E0000000005461726765742069732028525291
:1030F00020782056542900505356204D696E75741F
:103100006520566F6C756D6500256C752050617477
:1031100069656E7400696E697469617465642062C2
:1031200072656174687300004465746563746564F6
:10313000206275742049676E6F7265640057686914
:103140006C6520696E20434D56206D6F64650041AB
:1031500063636570742028594553206F72204E4F69
:10316000293F004C696D6974656420565420726172
:103170006E6765006F722069732064616D616765B9
:10318000640042564D2042616720697320746F6F5E
:1031900020736D616C6C00686176652063726F737B
:1031A00073656420256C7500776974682061206EF2
:1031B0006577206F6E6500506C6561736520726580
:1031C000706C6163652042564D000042564D20638D
:1031D0006F6D7072657373696F6E73000000425695
:1031E0004D2023436F6D7072657373696F6E73004A
:1031F00000256C75204379636C65730000496E731C
:10320000706972652D313030204C6F636174696F65
:103210006E00746F2057692D4669204E6574776F74
:10322000726B00436F6E6E656374204C6170746FD7
:10323000702F50686F6E650000496E73706972651B
:103240002D3130302050617469656E7400746F20C8
:1032500057692D4669204E6574776F726B00436F16
:103260006E6E656374204C6170746F702F50686F60
:103270006E650025736B67202573636D00257320D1
:1032800025737972002573202573005B25735D001B
:1032900050617469656E7420496E666F00252E3228
:1032A000307300252E3230730000000057692D4620
:1032B0006920436F6E6E656374696F6E004175744B
:1032C0006F205265636F766572696E67005379731C
:1032D00074656D20697300004D6F746F72204661D4
:1032E000756C7400526573756D6564204F706572FE
:1032F0006174696F6E00004D6F746F722046617566
:103300006C74005265636F76657265642066726FD7
:103310006D00524553455420746865205379737489
:10332000656D00004E6F74205265636F7665726143
:10333000626C65004D6F746F72204661756C74002D
:10334000697320756E64657267726F756E642E00A6
:10335000546865697220616D617A696E6720747264
:1033600061697400756E757375616C207472656542
:10337000732E00417370656E7320617265207665EF
:103380007279006361727269656420627920616E8E
:10339000696D616C732E007468652077696E6420B6
:1033A0006F72206172650073656564732074686173
:1033B0007420666C79206F6E005472656573206EA0
:1033C00065656420746F2073707265616400637555
:1033D0006C747572657320616C6C206F7665722EEB
:1033E0000079656172732075736564206279206D60
:1033F000616E7900666F7220666976652074686F09
:103400007573616E640048617270732068617665DF
:1034100020657869737465640068656C70732067F3
:1034200065742069742075702E0069732066756E4E
:103430002E2041206C696768742077696E64006E85
:103440006963652C20666C79696E672061206B6901
:103450007465005768656E207468652077656174CF
:1034600068657220697300746865726520697320ED
:10347000736E6F772E00616E79776865726520775D
:1034800068657265006F7574646F6F722070617328
:1034900074696D6500536B69696E6720697320619B
:1034A00020706F70756C617200666F756E64206954
:1034B0006E205275737369612E0074686F75736145
:1034C0006E642079656172732061676F2C00666F8E
:1034D000756E642C20646174657320656967687417
:1034E00000546865206F6C6465737420736B692089
:1034F0006576657200416E74617263746963612000
:103500006963652073686565740069732066726F0E
:103510007A656E20696E20746865006672657368EE
:10352000207761746572206F6E2045617274680047
:103530004E696E6574792070657263656E74206F74
:1035400066007C20232323204661696C6564204D3E
:103550006F746F72205245534554000000456E67EA
:103560006167696E67205368616674005475726E96
:10357000696E67204D6F746F72204F4E007C202360
:1035800023232044697361626C696E6720616E64F5
:1035900020456E61626C696E67206D6F746F72009A
:1035A0000000446973656E676167696E67205368E0
:1035B000616674005475726E696E67204D6F746F2A
:1035C00072204F4646002E2E202564202E2E007C91
:1035D0002023232320507265737375726520666FF4
:1035E000756E64206174205374657073203D2000F3
:1035F0007C20232323204661696C656420746F203E
:1036000066696E6420707265737375726520616699
:103610007465722073746570733D007C20232323CE
:1036200020436F6D7072657373696E6720746F20CD
:1036300066696E6420707265737375726520647557
:1036400072696E672062656C7420666978206F709D
:1036500065726174696F6E0000776F756E642063C8
:103660006F72726563746C7900746865206D6F7435
:103670006F722062656C7420697300456E73757299
:10368000696E672074686174002064656720430078
:10369000212121212121212020434F4C4420434F2F
:1036A0004C4420434F4C44202E2E2E200020646595
:1036B00067204300212121212121212020484F542E
:1036C00020484F5420484F54202E2E2E20003E3E9E
:1036D0003E3E204D65617375726564205379737445
:1036E000656D2054656D7065726174757265202812
:1036F0006465672043656C7369757329203D2000FC
:103700007C20007C20007C2053656C66746573749B
:10371000204661696C65642050696E206E756D622B
:1037200065722000554E4B4E4F574E002C20447969
:103730006E616D6963203D2000554E4B4E4F574ED4
:10374000003E3E3E3E204C756E6720436F6D706CB0
:103750002E20286D6C2F636D2048324F2920537422
:1037600061746963203D20006C6573732074686127
:103770006E2042562073746570730043616C6962F9
:1037800072617465642053746570730042616420D3
:1037900043616C6962726174696F6E00537973740E
:1037A000656D204572726F720000000000FA0A36E3
:1037B000000A0F500002126200361577008417804D
:1037C00000941B9A00101DA800C021C0009C22CAB2
:1037D00000CC24D8009E2A01019E2A01019E2A0ABB
:1037E000019E2A21019E2A28019E2A32019E2A3DFD
:1037F000019E2A4A019E2A5C019E2A64019E2A6437
:10380000019E2A74019E2A84019E2A84019E2A8494
:10381000019E2A8E019E2A8E019E2A8F019E2A9742
:10382000019E2A9D019E2A9D0100000000C70B3CBD
:1038300000820F5200A21266008B157900291889A8
:1038400000991BA100FB1DB2000221C500E623DA8E
:1038500000AC26EA001C2A0401C92A0A01C92A1B55
:1038600001C92A2A01C92A3601C92A4701C92A528F
:1038700001C92A5F01C92A6C01C92A7601C92A76C1
:1038800001C92A8B01C92A8B01C92A9801C92A9921
:1038900001C92AA001C92AA101C92AA401C92AB5BE
:1038A00001C92AB701C92AB70100000000940C43DE
:1038B00000FA0F550042136A00E0157C00CE189301
:1038C000009E1BA800E61EBD004420CA003025EA69
:1038D000008C28FD009A2908013E2B16013E2B2D55
:1038E000013E2B33013E2B44013E2B5C013E2B67F6
:1038F000013E2B75013E2B7D013E2B89013E2B891C
:1039000001882CA201882CA201882CAF01882CB13F
:1039100001882CB301882CB701882CB901882CD3DD
:1039200001882CD301882CD30100000000C70B3C78
:1039300000820F5200A21266008B157900291889A7
:1039400000991BA100FB1DB2000221C500E623DA8D
:1039500000AC26EA001C2A0401C92A0A01C92A1B54
:1039600001C92A2A01C92A3601C92A4701C92A528E
:1039700001C92A5F01C92A6C01C92A7601C92A76C0
:1039800001C92A8B01C92A8B01C92A9801C92A9920
:1039900001C92AA001C92AA101C92AA401C92AB5BD
:1039A00001C92AB701C92AB70100000000FA0A3686
:1039B000000A0F500002126200361577008417804B
:1039C00000941B9A00101DA800C021C0009C22CAB0
:1039D00000CC24D8009E2A01019E2A01019E2A0AB9
:1039E000019E2A21019E2A28019E2A32019E2A3DFB
:1039F000019E2A4A019E2A5C019E2A64019E2A6435
:103A0000019E2A74019E2A84019E2A84019E2A8492
:103A1000019E2A8E019E2A8E019E2A8F019E2A9740
:103A2000019E2A9D019E2A9D0100000000CD0A39B9
:103A300000790E520058116900C4137D007A179066
:103A400000E01AAC00B11CBB00B720D4008D22E10D
:103A500000B225FD0072291B0175291F0190293A2A
:103A600001BC2A4201BC2A4E01BC2A5F01BC2A6566
:103A700001BC2A7401BC2A8801BC2A9E01BC2A9E72
:103A800001BC2AAA01BC2AB101BC2AB901BC2ABDC9
:103A900001BC2AC901BC2AC901BC2ACE01BC2AD555
:103AA00001BC2AD501BC2AD50100000000A00A3CB7
:103AB00000E80D5500AE107100521284007017A17D
:103AC000002C1ABE00521CCF00AE1FE8007E22F868
:103AD00000982622014628350196283F01F02D6BDB
:103AE00001F02D6B01F02D7401F02D8D01F02D8D65
:103AF00001F02D9E01F02DB501F02DD901F02DD949
:103B000001F02DE101F02DE101F02DF101F02DFA90
:103B100001F02D0402F02D0702F02D0E02F02D14FD
:103B200002F02D1402F02D140200000000D70A3D0F
:103B3000006F0E5800AE106C00651385007F17A053
:103B400000181AB900061DD3001220EA009C22FEBC
:103B5000001C251801A1272F01BF273701C42C63A2
:103B600001C42C6301C42C6C01C42C8501C42C87B6
:103B700001C42CA101C42CB101C42CC901C42CC99D
:103B800001E12DD401DA2ED801DA2EE701DA2EF286
:103B9000017931F70179310102793102027931027B
:103BA000027931020292310502000000000E0B3F43
:103BB00000F60E5C00AE106700781486008E17A029
:103BC00000041AB400BA1DD7007620ED00BA220412
:103BD00001A0230E01FC262901FC263001982B5C54
:103BE00001982B5C01AE2E6501B6307E01B63081A6
:103BF000014E34A4014E34AD014E34B9014E34B9F6
:103C0000010235C701F636D2018237DD014439EAB7
:103C1000014439EA016E3CFB016E3CFB016E3CFB4A
:103C2000016E3CFB016E3CFB0100000000130B3DEC
:103C300000C90E58003B1065005613800062169AAA
:103C4000002819AE00941BC400821EDA008F20EFFA
:103C500000742200015D251B015C262201D6294645
:103C600001D6294601DD2C58015E2E6A015E2E6CBC
:103C7000016A3191016A319601F131A901F131A94D
:103C8000012C33AE01EE34C601EE34D001BB35DB7E
:103C900001C936E101C936EC01C936EC01C936EC7F
:103CA000014E38F4014E38F70100000000180B3BBC
:103CB000009C0E5500C80F630034127B003615952A
:103CC000004C18A8006E19B1008E1CC700641EDAE3
:103CD000004821F300BE230E01D025150114283120
:103CE00001D22835010C2B4B01062C5601062C570E
:103CF00001862E7F01862E800184309A01CA309F72
:103D00000156319F01E632BB01E632C301E632CDF6
:103D1000014E34D9014E34DD014E34DD014E34E024
:103D200001EE34F401EE34F901000000001D0B39FE
:103D3000006F0E5100550F6100121175000A148FAB
:103D4000007017A2007017A2009A1AB400391CC59F
:103D5000001C20E5001F2200014425070152261BFC
:103D600001F72726013B293E01AE294201AE294237
:103D700001A22B6C01082F6C01172F8A0191309A38
:103D80000191309A01DE30AF01DE30B601DE30BE87
:103D900001D331D001D331D001D331D001D331D7C8
:103DA00001D331F301D331FA01E062E23712632427
:103DB0003E4753C7458053254DB3435C55E3438885
:103DC0005C0934996336348D6B9C2438708742A427
:103DD0002FC0421436F742393C2D331A456233F670
:103DE0004893232E50C3232C57EE23955D1124CAEC
:103DF000635432F3298B32E02FC1322737F922BACC
:103E00003E2B2353445C23664A8A236850B223A284
:103E100055D323295ACC624535FA62743D31539B00
:103E2000436A53434A9E435C52CF43AF59F7331919
:103E300062233438697424E96A7642772DAC4220D3
:103E400034E142753A1933D7424F331A488223502E
:103E50004EB123E254DA23D65AFD232B6048326D4B
:103E6000297E32A62EB3323135E7222C3C1923139A
:103E70004249230C487523964D9E239652C4238AAB
:103E800057B952A832E352C53C1B436F41554362B8
:103E9000478A435C4FBC33D656E5239A601124E32E
:103EA000664C249A6566324A2B98322D32CC32B257
:103EB00038052395403C233E477223734C9F23983B
:103EC00052C6231858EA238C5C3D22E72872226CE4
:103ED0002DA5223B33D5229E390723D43F3623B369
:103EE000456023C44A8A238A4FB623EC54A452DC8B
:103EF00030D2528F3A0B4361404943F7457E43BB72
:103F00004DAE338454DA23B15B072473613B24B193
:103F1000645A32072A8E328731C4320B38FC2203AE
:103F20003E322359456123954A8D234E50B6239D39
:103F300056D9239F5B3422CF266822A42C9A22F1E3
:103F400032C7223838F9221C3E2823FE4353235D12
:103F5000497C237A4EA623C2539042112FC1425A64
:103F600038FC42533F3D338D4473231B4CA1233215
:103F700052D023C956FE23035C2B24C8634E32C49F
:103F8000288532E130BC326437F422713B28237536
:103F9000435023B8487C23044EA6232255C923B29C
:103FA0005A2C22B7245E22DD2B8F22A832B922D3CD
:103FB00036EC22653C1B2349424623F7476E236AB1
:103FC0004D972399528742232EB942F335EF42F29F
:103FD0003E3333374367237B4A9923C750C8238C2A
:103FE00056F3235C5C1C24EB6249325A277D32FE77
:103FF0002EB032A335E722F43A1A2312424523A108
:10400000477023A64C99233F52BB23EE572C2277AF
:10401000255B22562B89220731B4220336E322B6D0
:104020003A112382403C23834664237B4B8A2380BE
:10403000507F42362DB1428D33E232913E2A33E237
:10404000415C33DB4891235C4FC1234F56E923B6D3
:104050005C0E240E624522F02575221C2DA522E35C
:1040600033DA22783A0D23AF403A238B4664234952
:104070004B8D235C4FAE232A552C2238265822D054
:104080002A8322672FAF223435DA2207390723BC6F
:104090003E332310455B238C497D23674E7542EFE9
:1040A0002BA642A432DA32973B1D336C4052338B3D
:1040B000478623EB4DB423FB54DB23EC5AFF23301C
:1040C000603E2260276E22022D9E22AB32D222C792
:1040D000380523F73E31232F455B237F4A8823731E
:1040E0004EAA23CB53252266255122DF297D225754
:1040F0002EA822CE33D422AF3800235C3E2A23AD33
:104100004352232D497923DD4D6B32A92A9C32BCC1
:1041100031D3329D381023F73E48233C467B237A27
:104120004CA823A853CE232259F123525E3822D023
:10413000286822E82C98227331CB221737FE2240C0
:104140003D2823D3435223B54984238A4DA7236CAA
:10415000521F2294244B22EE287722482DA2226956
:1041600032CE225738FA22FD3D22234A424A23CF3B
:10417000487523534D6832BF2998326E31D1325C75
:10418000370C23693E4023DA457023834B9B236E13
:1041900051BE230557E223505C3022712760221D57
:1041A0002C8F220131C222CA36F1228B3C1D23976B
:1041B000424A23F2477923634C9E239D51212219C1
:1041C000224A2278277322D72C9D224632CB22A264
:1041D00037F7223D3D212328414823604773236060
:1041E0004C6632D62895322031CF321C360823DB7C
:1041F0003D3923784565238D4A8E23354FAF23E91A
:1042000054D4234F5A292213265822522B86229007
:1042100030BA227D36E422D73B12235C4143232F60
:10422000466E233D4B9523CF5024229E1F4A2202E7
:10423000267022672C99222432C822EE36F4227E80
:104240003C202306404723F14571236D4B5B329B95
:10425000288C32BD2FC432AC35FC22183D2C235F94
:10426000435B23D3498323734EAA23AB54D02397B4
:10427000592522F6255422232B83225030B322F2D3
:1042800035E122B13A0D231940382377456123C027
:104290004A8923BD4F1B22BD1F4222D5256A22EE2B
:1042A0002B9322AC31BF22AC36E9225C3B15235B59
:1042B0003F40233D456A23904A5132602884325A58
:1042C0002EB9223C35F022553C2023464152231979
:1042D000497923B24DA5236D54CC23DF582122D92F
:1042E000255122F42A81221030AD226735DE228B3F
:1042F000390823D63E2E23C0445523444A7D23ABA0
:104300004E1222DD1F3B22A9256422752B8D2234FB
:1043100031B7226A36DE223B3A0B23B13E39238A7B
:10432000446323B4494D3218277F32FD2DB6225EF7
:1043300035E822D43B182380404823D9467023F225
:104340004B9B23CF51C323F5551D22AA244B221D7D
:104350002A7922902FA5229034D422AA3802232E23
:104360003E2C23A8435223CD487923D14DFE21C1B1
:104370001E2F22D4246022E62A8F22C230B7229A2E
:1043800035DE22E8390A23A13E3523CE4359236086
:10439000484922D0257B22A02DB3228035E122532B
:1043A0003B1123BA3F3E2399446823324A92233279
:1043B0004FBB230C5319227C23452247297122111C
:1043C0002F9D22BA33CB22CA37FD22873D2A239163
:1043D000424F2356477623F74CEA21A61D2322FF9E
:1043E000235C22582A91225130B822CB34DE229508
:1043F000390923923E3123124350230D47412210A5
:104400002773228C2DA722FA33D8229E390B23182A
:104410003F37235E446123A1498C238C4EB623335E
:104420005316227E2442224A296E22162E9A22AC4C
:1044300032C722BC37F9222D3D232393414C23E27E
:10444000467523A54CFD21AA1F2C22EB245B222CB0
:104450002A87223E2FB0221A34D9221B390223D7B1
:104460003D272304424B23C345392251286B22792F
:104470002D9C227432D022E9370523773E31232345
:10448000445A2311498623E74DB2235A53132281FC
:10449000253F224E296B221C2D97229F31C422AF2B
:1044A00037F522D43C1C2395404A236E467523548D
:1044B0004C1122AF213522D8255A22012A7E222BE7
:1044C0002EA9226933D422A138FB221C3D1E23F6DB
:1044D000404623794437222B2667224E2C962241D0
:1044E00032C922BA37FC222A3D2C23AD425323394C
:1044F000478023034DAE234D510D222B233A22E456
:104500002767229D2C94228F31C022C536EC2213BE
:104510003C17239B404223C1456D23D84A10224EAD
:10452000203522EB245A2287297F22242EA822E933
:1045300032D1228937F622C33B1C23BD3F43238956
:1045400043362206246322232B91220E32C2228B71
:1045500037F322DE3B282337414D2362457A231F60
:104560004CAB23414F0822D52036227A2664221EE6
:104570002C92228031BC22DB35E322523B1323A252
:10458000403B23154565235C491022EE1E3522FE73
:10459000235B220D2981221D2EA8226A32CE227190
:1045A00036F2226B3A1B23843E41239A4231224B3E
:1045B000255F22512B8E224031BE229936EE2257A2
:1045C0003B2123994148237D457223234BA0234B54
:1045D0004F0C22AD213722D6266322FE2B8E220BD2
:1045E00031B9221536E1220B3B0F23E73F38237107
:1045F000445F23F9480622E21E2D22CC235622B521
:10460000287E22A02DA522BB31CA228E35F0228819
:10461000391723BA3D4223D6412D2290265C2280B1
:104620002B8B227330BA22A835E922D13A1A23FC07
:1046300041442398456B23274A9523554F102285E3
:1046400022392232276222DF2B8B229630B7224F6B
:1046500036E022C53A0C232C3F3523CD435923970E
:1046600048FC21D61E26229A2351225E287B222333
:104670002DA2220D31C722AC34EE22A5381423F02E
:104680003C432312410063E03B37637B416B53089B
:1046900049A6533B51D943B4591244025F6C34824A
:1046A0006892347B69CD244366B642B531F14293BA
:1046B000362443793E5733EB458733CC4BB5238BB8
:1046C00053E3237F5A4A24805F7D24B3667A3265A0
:1046D0002BB632AC32EC32F1382023784053235DD4
:1046E000468023AB4CAA231253DA2340583024F9D6
:1046F0005BF36292392663B5405E531B47975312B2
:104700004ECA43F755F943415C57345C64000000DE
:104710000000000000A542692FDE42ED34114388FD
:104720003C46330A447733A94AA5237E51D223D885
:10473000571B24E75D732412647032882AAB32FA67
:1047400030E1327D371323833E4423674471233B9A
:104750004A9B234F50C7231D551B243259E752440F
:10476000371553F13F52432E458843EB4ABD433A38
:1047700052E23381594324376000000000000000FA
:104780000095321D2DCC324733FF32983A3623291B
:1047900042672386499623714FC1233155EC234F3D
:1047A0005C692472616722AB29A022482FD62208B7
:1047B0003605238F3C342372426323CB478C238CF2
:1047C0004DB523FA5106246C56D652CD34085327E2
:1047D0003D424380437B43F748AC431650D1339C62
:1047E000572324A25C00000000000000008732B6BE
:1047F0002BBE32C632F632B9392B2308405D2387EF
:10480000478A23114DB223DC52DC23BE5952246661
:104810005E5F22F1279722AA2ECC224C35FA22EC99
:104820003A2923A7405623244680235C4BA7236DB7
:1048300050E823C755C6425632FA425F3A3343D254
:10484000416D3304479C23F24DC123B75503240E19
:104850005974242F629624766F7A32502AB23244E9
:1048600032EE32DB382123E73D532389457E23B1E5
:104870004AA5238850CD232D573D245B5B57223812
:10488000268E220C2EC2229134F0224A391F23DCBC
:104890003E4B237D4473232D499A23E14ECA2323A3
:1048A00055BE42F830F24226382743F4406333BD08
:1048B000459123174DBD23F453FA2309586824F07A
:1048C000604424BD6975325329AB32EF30E4327C49
:1048D0003718233D3D48231C44752398499D230BDD
:1048E0004FC223A4541924BC59542271268A222E63
:1048F0002DBB220333E92249381623753D42233864
:10490000436D23B0489523DA4DCA233F53B7429BEA
:104910002FEA42EE351B3315405A33784488333C36
:104920004CB9233152F22305575D24B25FF42305BD
:104930006470225628A5229A2FDA221E360E23945E
:104940003C3F23B0426D237F4895238E4DB7231BF8
:1049500052F7231C585222AA268722502CB52276C1
:1049600031E22249370D230F3C3A23F441672334C7
:10497000489123D34CC9235B51A642152EDB42201C
:10498000351133F43D4F33CD427E33574AAE23A821
:1049900050E123F9553024B75C2F2494616922BE7D
:1049A000289D223F2FD02253350323313B342357F8
:1049B0004163231B478923CE4BB1233B50F3236430
:1049C000564A22F2257E22932BAD22C130DA2249AB
:1049D000360723733B3323F1405D2318468B23E2D4
:1049E0004BC22346509632912CCE3252340733D4E8
:1049F0003B4423244175237248A223204FD123EE48
:104A0000540424BB596B24245F632227299622E592
:104A10002EC7228934F822CE392A23FF3F5A23B6E3
:104A2000457D230E4AAC235B4EEF23AC5443223A20
:104A3000257622D72AA5220E30D32249350223D843
:104A40003A2D23F03F5323FD438523F14ABB233006
:104A50004F9432BD2BCB3273330433553A3D23BAD6
:104A6000406D23AF4798239D4DC4232553FD235903
:104A7000586124E15D5B224B288F22A12DC0229931
:104A800033F0221C392023173F5123BB447A231CC7
:104A900049A623DC4DDF2315543D2299236E226D58
:104AA000299D222D2FCA22A934FB22FF392923B0A8
:104AB0003F51230C448323CE49B923D44D9232E98C
:104AC0002AC93295320133D738362351406523ED58
:104AD000468F231A4CB6235C51F723F75657249F71
:104AE0005C53226F2788225D2CBA22AA32E8226901
:104AF000381723303E4823C14377232B48A0235D3A
:104B00004DCE237E533822F8216622032896224C6C
:104B10002EC3220B34F52227392623713F50231B45
:104B2000448123AB48B723784C8932DD2AC0321B3D
:104B300032F83239382B23293F5A23C9458423B20E
:104B40004BAB239B50EC2339564124655B5022AD7F
:104B50002683225A2CB5222132E422CC371323207B
:104B60003D42235F426D2357479723DA4CCE23887B
:104B7000513522ED216522A8279422BE2DC1227233
:104B800033F122A3382023913E4B23C1427A2323C1
:104B900047B5231B4B8032D12AB732A031EF229C7C
:104BA000372123003E4F23A5447A234A4BA023DB21
:104BB0004FE2237C552C242C5A4D22EB257E225784
:104BC0002CB1229931E02230370F23103C3C23FED8
:104BD00040642384468E23584CCE23934F3322E3E4
:104BE0002164224E279222312DBF22D932ED221F7D
:104BF000381B23B23D4623684172239C45B323BF33
:104C0000497E32A129B532D230EB2296371B233AA6
:104C10003D482322437423EC489B23CE4DCF234BA6
:104C2000531624085748226C257B228A2BAD22DD9F
:104C300030DC229C360A23793B3623754060237989
:104C4000458B23D14AC623B04E282251215C22BB7A
:104C5000268E22AA2CBF227332EC22CC371A23C50F
:104C60003C4423ED4072231645A5237E487C2270E8
:104C700028B3220430E72290371723743C4223A044
:104C8000416D238F469623C14BBD231B510124E563
:104C9000534422EE247822BD2AA8222230D9220AA7
:104CA000360523E23A3223ED3F5D236F4488234AE1
:104CB00049BE23CE4D1D22C120542228268B2224FA
:104CC0002CC0220D32EC227A371A23D93B422374AE
:104CD000407123904497233D476022AF2697225E80
:104CE0002EC822CB34FA222A3A2923E93F5223D56F
:104CF000447A23CA49A323F24ED723EB522E22AD86
:104D0000235E2215298C22472EBB22D133E722E1D4
:104D1000381423BA3D3F238742692391479823994A
:104D20004C10220A214122CC257222D82AA222DD4F
:104D30002FD0223A35FE221E3A2823E43E5023D5B6
:104D4000427523C2454422EF247B22B92CA92206B6
:104D500032DE22E1371023323E38231B435F23D358
:104D6000478923CA4CAD23F15119226E2245226E88
:104D70002770226E2C9D229831C922E036F72288B6
:104D80003B21239E404A23D8457223654B0422557C
:104D9000212E22712559228D298422AD2DB522FB89
:104DA00032E22264380E23543D30231B4152234704
:104DB0004443229B247822E02BA9228B31DB226200
:104DC000370A23FD3C3723FA415E23A04688233768
:104DD0004CAF231651142230214222BD2670224AA4
:104DE0002C9C227831C9224C36F4221F3B20232EE2
:104DF000404A230E457223EC490522661F312224C6
:104E0000245E22E2288A22952DB722A332E2228D47
:104E1000370A23C23B2E23863F5123C142432248F7
:104E2000247522072BAA221031D922E3360423C984
:104E30003B3623D9405D236E458723A44BB1233BEA
:104E4000501022F31F40220D267022272C9D22593C
:104E500031C922B835F222B73A2023BE3F4B234650
:104E600044722373480722791D3522D822642238E0
:104E70002890227E2DBA224B32E222B73607233108
:104E80003A2D23F23D51233B413C225F246F229E69
:104E90002AA422F530D4225236FF22CF3B2E23679C
:104EA00041562308457F231D4AA8233D4F1222E97E
:104EB000203F225C266D22CD2B9622BF30BE22756C
:104EC00035EF22523A1A232D3F4423CA436C234420
:104ED00048F8214D1D282293225922D927882214CF
:104EE0002DB222A331DD22C13502233B39262319FD
:104EF0003D4C23F840352277246922362A9D22DB57
:104F000030CF22C135F922D53B2623F6415023A2CA
:104F100044782396489F233F4E1422E0213F22AA43
:104F2000266922742B90222530B5223335EC22EEEF
:104F30003914239B3E3E234E4366231648EA212222
:104F40001D1C224F224F227C278122A92CAB22FB41
:104F500030D922CD34FD2245382023403C4723B6AA
:104F6000402063DE3F5C63D24490634A4CCD535192
:104F700055FF530D5E41447C61D0346B6DEE346956
:104F800067FE344F5CE642C633224313375243BABE
:104F9000408233BC46AC23A24ED823E9560424D326
:104FA0005DA6246C61EA249C69A032D72CE2327998
:104FB000351723BC3A482336427C236748A423F1A3
:104FC0004ECA23BC550324DE5A8E24CA5D1B63DF00
:104FD0003D5263F7438C639B4AC453E251F75393AA
:104FE000592444D45EB8349F6600000000000000DD
:104FF00000D5425B311143BA3542439C3E74333D88
:10500000459F23384DC923AC54F323CF5A5C24F970
:1050100060E924FA679932A32BD8324E330F23C9A3
:10502000393F23DB406F23BB469A236A4CC12308D8
:1050300053F123A4577224DB5A1653E13B48531D06
:10504000438953ED48BC43744EF043195508342C42
:105050005CA124D45F0000000000000000C432F016
:105060002E0033623433337F3C6723BE439323CE19
:105070004BBA237052E323CB5713248660E824589D
:105080006692226F2ACE2224310723D63836238116
:105090003F622310459023E349B9235450E0236A2B
:1050A000545624ED570953BE383E53C03F79539FA1
:1050B00046AD43F74BDA437152F533B45A6C24943E
:1050C0005D0000000000000000B532662DEF3205E3
:1050D000342933683B5B230D428823B649B3238DC3
:1050E0004FD8236B550324DF5CCC242E618A221415
:1050F00029C622B030FE22A8372E23A13D5A2332E2
:105100004385234A48AD235C4DD32361522A24CDE5
:1051100057FC429C353443643C6A4352449E337B83
:1051200049C533C94FE2233D593724545BEA245C17
:10513000680125247BA632DC2BDF32A833203352D2
:105140003A4F235D407E239E47AC23AB4CCE230CCD
:1051500053F4233959B124055C8322BA27BF223C7A
:1051600030F5227B362723C23B532354417B23B1A6
:1051700046A123644AC7235850FE23AD57F542CEBB
:10518000332B435A3A5F43F64294334448BC33B31B
:105190004FE22322572D248759DD2485656D249005
:1051A00070A1324C2BDA32E032183355394923875B
:1051B0003F77232746A6238F4BCA237051EB230941
:1051C0005778248A5B7D226B27BA22062FEE2200B5
:1051D000351E23903A492335407423EE459E23DE45
:1051E0004AC72339500A24FE55EF42003223435068
:1051F0003855439A418A330E47B4239E4FE2230722
:10520000552324BB57D124AF62DA23FC659C22BC12
:105210002AD6221932102359384323B13E7123B1C3
:1052200044A123744AC623D44FE223DA5440240F06
:105230005B78221D27B622D02DE722853315235F08
:10524000394023173F6D232C459C23594BC8231A03
:105250005016245054D8423C3011439C3748435296
:105260004081332F45AB23234DD62366530F24F8BB
:10527000568624825E6024F96295221D2ACD227D05
:10528000310323FC3734239B3D6423B74396230724
:1052900049B7231E4DDB2303523C24FE5870227E67
:1052A00026AC22482DDD222C330C23C4383B233876
:1052B0003E6723874390238448C423974E0B24AF33
:1052C00052C232792E0033E8363B230B3F7923510B
:1052D00043A223A84ACA23C651FB2335563B245573
:1052E0005AE624F65F8E227E29C522E230F7229FFD
:1052F000372623863C5723BE428C239A47A923682E
:105300004AD4232D4F3824ED566822E025A222C12D
:105310002CD422D4320423293836235A3D6123E386
:10532000418423B045C023144D01240E51C032BB2B
:105330002DFF32793537234E3D6E230C439A23855A
:1053400049C123B74FED23DC543D24AD59E024720D
:105350005F86222529BE22252FF22231361E236E9A
:105360003B5023A4418523E046AA23474AD3235533
:105370004F20248D565A2219259222622BC822834F
:1053800031F8220D372C235D3C5C2324428223F02C
:1053900046BE233D4CFF23494FBF32FD2CFE320B4E
:1053A000343433923B6423C84292236248B923A821
:1053B0004DDF2384533F240659DA24EF5E7E22CC4E
:1053C00028B822692DEE22C4341723563A4A238A7C
:1053D000407E232746AC23274AD3237E4F08242E22
:1053E000564C2253248222042ABD223230ED22F26E
:1053F000352323613B5823654281233048BC236613
:105400004BFD23844DB732202DF43279342C33C731
:105410003A5B233A4188233348AE23914DD323C4CA
:10542000522F24C857B324345D7B226527B22291C2
:105430002DE822F3331523A7394523903F7723A680
:1054400044A3233749CD23F54E1424545350221E30
:105450002488227B29BE228F2FEF22383523239BDD
:105460003A5823C74181232746B4230A490024A779
:105470004BB032432DEA32E7342533FC395223ACAA
:105480003F7F230448A3237B4DC82304521F248B52
:10549000568D24795B7922FE25AC22BA2DE2222397
:1054A000331323F9384123963E702326439A234829
:1054B00048C7236C4E20247B505422E9238E22F3CC
:1054C00028C022ED2EF1227F342323D539582329F9
:1054D0004182231F44AC23AE460424CA49AF322A7A
:1054E0002CEB32A7332033CE394F23A03E7923C58E
:1054F00045A023004BC623AA4F0424C8546A241B8A
:105500005874222F26AB22F72CE1222B321423A928
:10551000384023483E6B23BC4295234B47C423D5D8
:105520004C1324904F5222E2238A22A228BD226EDD
:105530002EF02224342223FF395723A33F7E233A1F
:1055400043AF235E46F1239C48AF22112BEC226827
:10555000321C23A0394D23953D742386439D23851A
:1055600048C423504DE92305534724BE546F22609D
:1055700026AB22342CE022333116235A384023FA4A
:105580003D6723534291234E46C2233E4B0724A638
:105590004E5022DC2386225128BA22F02DF022CA56
:1055A0003321232A3A57231D3E7B235642B2230F31
:1055B00046DF236E477F224F26BB22302FE9229CF5
:1055C000351C23B73A4723BA406E234C459423F346
:1055D00049BA23594FF823A3524722DD227B22E107
:1055E00028AB22792EDC22F6340723063A302347F3
:1055F0003E5B237B4386234048BB238E4C23226B98
:10560000225722AD268922842BBD227C30F1225BD9
:10561000362323223B4E23F13F7A23A7439F23C205
:10562000454F228D218B22F92BB6229931EC22D9BC
:10563000371B23EE3D3F231442652396468C23AD52
:105640004BA92389501F225B1F4B228E257622C037
:105650002BA3229231CE221236F9223C3A2623A8DD
:10566000404A2342457023764AF721FB2028220A2C
:1056700025592219298B222F2DC2228D32F0222862
:105680003821238C3D422340415F23164450220B96
:10569000238922722BBD22D630EE220A371823D15D
:1056A0003C422348416923084690236B4BB023DFDB
:1056B000501C22361F4B2297257922F82BA52262F7
:1056C00031D222D435FD222C3A2923C13F52235C0A
:1056D0004477230049FA217F1E2E225E2363223E57
:1056E000289522072DC7225D32F32292371E23C14F
:1056F0003B4023503F6023F94151228A248822EB0A
:105700002AC4221330F0223C361623B53B45237CB5
:10571000406E237B459423294BB723365119221120
:105720001F4B22A1257D22312CA8223231D6229670
:105730003502231D3A2D23DB3E5B2377437F238AEB
:1057400047FE21041C3522B3216D226327A022E0ED
:105750002CCC222D32F622FD361C23F7393F236054
:105760003D6223DC3F472274237F22EB29BA22AB20
:1057700030EA220B361023473C3B23364165239405
:10578000448C231749B023304F192226204822E2A7
:105790002577229D2B9F227330C422D634FD229A76
:1057A000392523733E5123234379238F47EB21B9B6
:1057B0001B24225B215D22FE269322882CC0228B93
:1057C00031F022F5351423EE383523783C57231B6E
:1057D000403E225E227622EC28B0224331E422DAD7
:1057E000350A23D93C3223F0415C23AD438523069F
:1057F00047A9232A4D19223C21452223267122093B
:105800002B9622B52FB3221734F82217391D230BFC
:105810003E4723CF4273239547D9216E1B132204A1
:10582000214D229A268722302CB522EA30EB22EE37
:10583000340C23E6372C23913B4C235A4026636ECD
:105840003860631B3F99636F47CF53CD50FF53457B
:10585000594244855EEC347463EF346B5FEA34D5AF
:1058600058E142B72F1743433750439A3D83339A49
:1058700043B123DC4BDA239D511C24AA58000000BD
:105880000000000000AE32AD29ED32A6332523F032
:10589000395723F43F87237B45AF23154CD4230787
:1058A000514524C056000000001F63D1365763F1F4
:1058B0003D9263CE45C6535E4DF953C1532F447399
:1058C00059000000000000000000000000D742B3B3
:1058D0002D1043CC344643933B78337342A623AF19
:1058E00049CE23794F06244D5600000000000000E9
:1058F00000A632BE28E532A2311C2363384D238234
:105900003E7C230F44A423B149CC23B44E1F24D89A
:105910005300000000185334354D53C83C8C532EAF
:1059200044BE43F049F4433D4E1C34625400000031
:10593000000000000000000000CE32AF2B093357FA
:10594000323D338C396E234C419B238247C2235511
:105950004DF023F15364248559C324A55D9E22D0C4
:1059600027DD229E2F1423D7364323113D7223A512
:10597000429A234D47C423614CFA23F150952409E0
:10598000540B53373341539D3A7D539241B04349B1
:1059900047DD436C4C0234F452000000000000006C
:1059A0000000000000BC324C2AF83224323033218F
:1059B0003961232E408E235646B823704BE1230EC7
:1059C0005241245556CB24EB5A9222FB26D122B9C0
:1059D0002E0923BD3538237C3B6523DC408C2318FE
:1059E00046B323E84AE423844F5B243354FE423A0F
:1059F00031344372386E43F63EA133A244C7339C20
:105A00004AE82387515B24F556000000000000009F
:105A100000AB32E928E732F2312333B7385523118E
:105A20003F81232A45AD238B49D3232C50202425A5
:105A300053D424315887222726C622D52DFD22A4EF
:105A4000342E23E8395923133F8023E444A2236FE3
:105A500049CE23184E21245D54F442942E29439FAD
:105A6000366143BC3D94334244BD33624AE423650E
:105A70005044243D560000000000000000A73256AC
:105A800028E232AC301C33B3374D23EF3D7823A4EA
:105A900043A6231548CF23204E0924BA51AA24E651
:105AA000568222FD25C122172DF622D2322623BF8F
:105AB0003851234F3E7B23E243A1238E48CE2380DF
:105AC0004C1C247B51EB42EE2B1E43CC34544383BD
:105AD0003C8733E443B423294AE023424F2D2486F4
